{
  "contractName": "ERC223Token",
  "abi": [
    {
      "constant": true,
      "inputs": [],
      "name": "token_symbol",
      "outputs": [
        {
          "name": "",
          "type": "string"
        }
      ],
      "payable": false,
      "stateMutability": "view",
      "type": "function"
    },
    {
      "constant": true,
      "inputs": [],
      "name": "MAX_UINT256",
      "outputs": [
        {
          "name": "",
          "type": "uint256"
        }
      ],
      "payable": false,
      "stateMutability": "view",
      "type": "function"
    },
    {
      "constant": true,
      "inputs": [],
      "name": "token_decimals",
      "outputs": [
        {
          "name": "",
          "type": "uint256"
        }
      ],
      "payable": false,
      "stateMutability": "view",
      "type": "function"
    },
    {
      "constant": true,
      "inputs": [],
      "name": "token_totalSupply",
      "outputs": [
        {
          "name": "",
          "type": "uint256"
        }
      ],
      "payable": false,
      "stateMutability": "view",
      "type": "function"
    },
    {
      "constant": true,
      "inputs": [],
      "name": "token_name",
      "outputs": [
        {
          "name": "",
          "type": "string"
        }
      ],
      "payable": false,
      "stateMutability": "view",
      "type": "function"
    },
    {
      "inputs": [],
      "payable": false,
      "stateMutability": "nonpayable",
      "type": "constructor"
    },
    {
      "anonymous": false,
      "inputs": [
        {
          "indexed": true,
          "name": "_from",
          "type": "address"
        },
        {
          "indexed": true,
          "name": "_to",
          "type": "address"
        },
        {
          "indexed": false,
          "name": "_value",
          "type": "uint256"
        },
        {
          "indexed": false,
          "name": "_data",
          "type": "bytes"
        }
      ],
      "name": "Transfer",
      "type": "event"
    },
    {
      "constant": true,
      "inputs": [],
      "name": "name",
      "outputs": [
        {
          "name": "_name",
          "type": "string"
        }
      ],
      "payable": false,
      "stateMutability": "view",
      "type": "function"
    },
    {
      "constant": true,
      "inputs": [],
      "name": "symbol",
      "outputs": [
        {
          "name": "_symbol",
          "type": "string"
        }
      ],
      "payable": false,
      "stateMutability": "view",
      "type": "function"
    },
    {
      "constant": true,
      "inputs": [],
      "name": "decimals",
      "outputs": [
        {
          "name": "_decimals",
          "type": "uint256"
        }
      ],
      "payable": false,
      "stateMutability": "view",
      "type": "function"
    },
    {
      "constant": true,
      "inputs": [],
      "name": "totalSupply",
      "outputs": [
        {
          "name": "_totalSupply",
          "type": "uint256"
        }
      ],
      "payable": false,
      "stateMutability": "view",
      "type": "function"
    },
    {
      "constant": false,
      "inputs": [
        {
          "name": "_to",
          "type": "address"
        },
        {
          "name": "_value",
          "type": "uint256"
        }
      ],
      "name": "transfer",
      "outputs": [
        {
          "name": "success",
          "type": "bool"
        }
      ],
      "payable": false,
      "stateMutability": "nonpayable",
      "type": "function"
    },
    {
      "constant": false,
      "inputs": [
        {
          "name": "_to",
          "type": "address"
        },
        {
          "name": "_value",
          "type": "uint256"
        },
        {
          "name": "_datat",
          "type": "bytes"
        }
      ],
      "name": "transfer",
      "outputs": [
        {
          "name": "success",
          "type": "bool"
        }
      ],
      "payable": true,
      "stateMutability": "payable",
      "type": "function"
    },
    {
      "constant": false,
      "inputs": [
        {
          "name": "_to",
          "type": "address"
        },
        {
          "name": "_value",
          "type": "uint256"
        },
        {
          "name": "_data",
          "type": "bytes"
        },
        {
          "name": "custom_fallback",
          "type": "bytes"
        }
      ],
      "name": "transfer",
      "outputs": [
        {
          "name": "success",
          "type": "bool"
        }
      ],
      "payable": true,
      "stateMutability": "payable",
      "type": "function"
    },
    {
      "constant": true,
      "inputs": [
        {
          "name": "_owner",
          "type": "address"
        }
      ],
      "name": "balanceOf",
      "outputs": [
        {
          "name": "balance",
          "type": "uint256"
        }
      ],
      "payable": false,
      "stateMutability": "view",
      "type": "function"
    }
  ],
  "bytecode": "0x60806040526040805190810160405280600581526020017f546f6b656e000000000000000000000000000000000000000000000000000000815250600190805190602001906200005192919062000173565b506040805190810160405280600381526020017f544b4e0000000000000000000000000000000000000000000000000000000000815250600290805190602001906200009f92919062000173565b506012600355348015620000b257600080fd5b50600354600a0a622dc6c00260008073dc8fe10c5e872e25ac24de310e60d88e4b7a22a173ffffffffffffffffffffffffffffffffffffffff1673ffffffffffffffffffffffffffffffffffffffff1681526020019081526020016000208190555060008073dc8fe10c5e872e25ac24de310e60d88e4b7a22a173ffffffffffffffffffffffffffffffffffffffff1673ffffffffffffffffffffffffffffffffffffffff1681526020019081526020016000205460048190555062000222565b828054600181600116156101000203166002900490600052602060002090601f016020900481019282601f10620001b657805160ff1916838001178555620001e7565b82800160010185558215620001e7579182015b82811115620001e6578251825591602001919060010190620001c9565b5b509050620001f69190620001fa565b5090565b6200021f91905b808211156200021b57600081600090555060010162000201565b5090565b90565b61130280620002326000396000f3fe6080604052600436106100c5576000357c0100000000000000000000000000000000000000000000000000000000900463ffffffff16806306fdde03146100ca57806318160ddd1461015a5780631f772a3414610185578063313ce5671461021557806333a581d2146102405780633c4b303d1461026b5780634d2d0a3d1461029657806370a08231146102c1578063947a31681461032657806395d89b41146103b6578063a9059cbb14610446578063be45fd62146104b9578063e9b07bbf146105b6575b600080fd5b3480156100d657600080fd5b506100df61074a565b6040518080602001828103825283818151815260200191508051906020019080838360005b8381101561011f578082015181840152602081019050610104565b50505050905090810190601f16801561014c5780820380516001836020036101000a031916815260200191505b509250505060405180910390f35b34801561016657600080fd5b5061016f6107ec565b6040518082815260200191505060405180910390f35b34801561019157600080fd5b5061019a6107f6565b6040518080602001828103825283818151815260200191508051906020019080838360005b838110156101da5780820151818401526020810190506101bf565b50505050905090810190601f1680156102075780820380516001836020036101000a031916815260200191505b509250505060405180910390f35b34801561022157600080fd5b5061022a610894565b6040518082815260200191505060405180910390f35b34801561024c57600080fd5b5061025561089e565b6040518082815260200191505060405180910390f35b34801561027757600080fd5b506102806108c2565b6040518082815260200191505060405180910390f35b3480156102a257600080fd5b506102ab6108c8565b6040518082815260200191505060405180910390f35b3480156102cd57600080fd5b50610310600480360360208110156102e457600080fd5b81019080803573ffffffffffffffffffffffffffffffffffffffff1690602001909291905050506108ce565b6040518082815260200191505060405180910390f35b34801561033257600080fd5b5061033b610916565b6040518080602001828103825283818151815260200191508051906020019080838360005b8381101561037b578082015181840152602081019050610360565b50505050905090810190601f1680156103a85780820380516001836020036101000a031916815260200191505b509250505060405180910390f35b3480156103c257600080fd5b506103cb6109b4565b6040518080602001828103825283818151815260200191508051906020019080838360005b8381101561040b5780820151818401526020810190506103f0565b50505050905090810190601f1680156104385780820380516001836020036101000a031916815260200191505b509250505060405180910390f35b34801561045257600080fd5b5061049f6004803603604081101561046957600080fd5b81019080803573ffffffffffffffffffffffffffffffffffffffff16906020019092919080359060200190929190505050610a56565b604051808215151515815260200191505060405180910390f35b61059c600480360360608110156104cf57600080fd5b81019080803573ffffffffffffffffffffffffffffffffffffffff169060200190929190803590602001909291908035906020019064010000000081111561051657600080fd5b82018360208201111561052857600080fd5b8035906020019184600183028401116401000000008311171561054a57600080fd5b91908080601f016020809104026020016040519081016040528093929190818152602001838380828437600081840152601f19601f820116905080830192505050505050509192919290505050610a90565b604051808215151515815260200191505060405180910390f35b610730600480360360808110156105cc57600080fd5b81019080803573ffffffffffffffffffffffffffffffffffffffff169060200190929190803590602001909291908035906020019064010000000081111561061357600080fd5b82018360208201111561062557600080fd5b8035906020019184600183028401116401000000008311171561064757600080fd5b91908080601f016020809104026020016040519081016040528093929190818152602001838380828437600081840152601f19601f820116905080830192505050505050509192919290803590602001906401000000008111156106aa57600080fd5b8201836020820111156106bc57600080fd5b803590602001918460018302840111640100000000831117156106de57600080fd5b91908080601f016020809104026020016040519081016040528093929190818152602001838380828437600081840152601f19601f820116905080830192505050505050509192919290505050610ac7565b604051808215151515815260200191505060405180910390f35b606060018054600181600116156101000203166002900480601f0160208091040260200160405190810160405280929190818152602001828054600181600116156101000203166002900480156107e25780601f106107b7576101008083540402835291602001916107e2565b820191906000526020600020905b8154815290600101906020018083116107c557829003601f168201915b5050505050905090565b6000600454905090565b60028054600181600116156101000203166002900480601f01602080910402602001604051908101604052809291908181526020018280546001816001161561010002031660029004801561088c5780601f106108615761010080835404028352916020019161088c565b820191906000526020600020905b81548152906001019060200180831161086f57829003601f168201915b505050505081565b6000600354905090565b7fffffffffffffffffffffffffffffffffffffffffffffffffffffffffffffffff81565b60035481565b60045481565b60008060008373ffffffffffffffffffffffffffffffffffffffff1673ffffffffffffffffffffffffffffffffffffffff168152602001908152602001600020549050919050565b60018054600181600116156101000203166002900480601f0160208091040260200160405190810160405280929190818152602001828054600181600116156101000203166002900480156109ac5780601f10610981576101008083540402835291602001916109ac565b820191906000526020600020905b81548152906001019060200180831161098f57829003601f168201915b505050505081565b606060028054600181600116156101000203166002900480601f016020809104026020016040519081016040528092919081815260200182805460018160011615610100020316600290048015610a4c5780601f10610a2157610100808354040283529160200191610a4c565b820191906000526020600020905b815481529060010190602001808311610a2f57829003601f168201915b5050505050905090565b60006060610a6384610ddf565b15610a7b57610a73848483610df2565b915050610a8a565b610a868484836110e1565b9150505b92915050565b6000610a9b84610ddf565b15610ab257610aab848484610df2565b9050610ac0565b610abd8484846110e1565b90505b9392505050565b6000610ad285610ddf565b15610dc95783610ae1336108ce565b101515610aed57600080fd5b610aff610af9336108ce565b8561127e565b6000803373ffffffffffffffffffffffffffffffffffffffff1673ffffffffffffffffffffffffffffffffffffffff16815260200190815260200160002081905550610b53610b4d866108ce565b85611299565b6000808773ffffffffffffffffffffffffffffffffffffffff1673ffffffffffffffffffffffffffffffffffffffff1681526020019081526020016000208190555060008590508073ffffffffffffffffffffffffffffffffffffffff1663c0ee0b8a3387876040518463ffffffff167c0100000000000000000000000000000000000000000000000000000000028152600401808473ffffffffffffffffffffffffffffffffffffffff1673ffffffffffffffffffffffffffffffffffffffff16815260200183815260200180602001828103825283818151815260200191508051906020019080838360005b83811015610c5c578082015181840152602081019050610c41565b50505050905090810190601f168015610c895780820380516001836020036101000a031916815260200191505b50945050505050602060405180830381600087803b158015610caa57600080fd5b505af1158015610cbe573d6000803e3d6000fd5b505050506040513d6020811015610cd457600080fd5b81019080805190602001909291905050501515610ced57fe5b8573ffffffffffffffffffffffffffffffffffffffff163373ffffffffffffffffffffffffffffffffffffffff167fe19260aff97b920c7df27010903aeb9c8d2be5d310a2c67824cf3f15396e4c1687876040518083815260200180602001828103825283818151815260200191508051906020019080838360005b83811015610d84578082015181840152602081019050610d69565b50505050905090810190601f168015610db15780820380516001836020036101000a031916815260200191505b50935050505060405180910390a36001915050610dd7565b610dd48585856110e1565b90505b949350505050565b600080823b905060008111915050919050565b600082610dfe336108ce565b101515610e0a57600080fd5b610e1c610e16336108ce565b8461127e565b6000803373ffffffffffffffffffffffffffffffffffffffff1673ffffffffffffffffffffffffffffffffffffffff16815260200190815260200160002081905550610e70610e6a856108ce565b84611299565b6000808673ffffffffffffffffffffffffffffffffffffffff1673ffffffffffffffffffffffffffffffffffffffff1681526020019081526020016000208190555060008490508073ffffffffffffffffffffffffffffffffffffffff1663c0ee0b8a3386866040518463ffffffff167c0100000000000000000000000000000000000000000000000000000000028152600401808473ffffffffffffffffffffffffffffffffffffffff1673ffffffffffffffffffffffffffffffffffffffff16815260200183815260200180602001828103825283818151815260200191508051906020019080838360005b83811015610f79578082015181840152602081019050610f5e565b50505050905090810190601f168015610fa65780820380516001836020036101000a031916815260200191505b50945050505050602060405180830381600087803b158015610fc757600080fd5b505af1158015610fdb573d6000803e3d6000fd5b505050506040513d6020811015610ff157600080fd5b8101908080519060200190929190505050508473ffffffffffffffffffffffffffffffffffffffff163373ffffffffffffffffffffffffffffffffffffffff167fe19260aff97b920c7df27010903aeb9c8d2be5d310a2c67824cf3f15396e4c1686866040518083815260200180602001828103825283818151815260200191508051906020019080838360005b8381101561109a57808201518184015260208101905061107f565b50505050905090810190601f1680156110c75780820380516001836020036101000a031916815260200191505b50935050505060405180910390a360019150509392505050565b6000826110ed336108ce565b1015156110f957600080fd5b61110b611105336108ce565b8461127e565b6000803373ffffffffffffffffffffffffffffffffffffffff1673ffffffffffffffffffffffffffffffffffffffff1681526020019081526020016000208190555061115f611159856108ce565b84611299565b6000808673ffffffffffffffffffffffffffffffffffffffff1673ffffffffffffffffffffffffffffffffffffffff168152602001908152602001600020819055508373ffffffffffffffffffffffffffffffffffffffff163373ffffffffffffffffffffffffffffffffffffffff167fe19260aff97b920c7df27010903aeb9c8d2be5d310a2c67824cf3f15396e4c1685856040518083815260200180602001828103825283818151815260200191508051906020019080838360005b8381101561123857808201518184015260208101905061121d565b50505050905090810190601f1680156112655780820380516001836020036101000a031916815260200191505b50935050505060405180910390a3600190509392505050565b6000818310151561128e57600080fd5b818303905092915050565b6000817fffffffffffffffffffffffffffffffffffffffffffffffffffffffffffffffff03831115156112cb57600080fd5b81830190509291505056fea165627a7a72305820588025a68c05f344a301328f20f47922be3e093b8dab07625aa90fa41b2506390029",
  "source": "pragma solidity ^0.5.0;\n\n interface ContractReceiver {\n  function tokenFallback( address from, uint value, bytes calldata data ) payable external returns(bool);\n}\n /* https://github.com/LykkeCity/EthereumApiDotNetCore/blob/master/src/ContractBuilder/contracts/token/SafeMath.sol */\ncontract SafeMath {\n    uint256 constant public MAX_UINT256 =\n    0xFFFFFFFFFFFFFFFFFFFFFFFFFFFFFFFFFFFFFFFFFFFFFFFFFFFFFFFFFFFFFFFF;\n\n    function safeAdd(uint256 x, uint256 y) pure internal returns (uint256 z) {\n        require(x > MAX_UINT256 - y);\n        return x + y;\n    }\n\n    function safeSub(uint256 x, uint256 y) view internal returns (uint256 z) {\n        require(x < y);\n        return x - y;\n    }\n\n    function safeMul(uint256 x, uint256 y) view internal returns (uint256 z) {\n        if (y == 0) return 0;\n        require(x > MAX_UINT256 / y);\n        return x * y;\n    }\n}\n\n\n\ncontract ERC223Token is SafeMath {\n\n  event Transfer(address indexed _from, address indexed _to, uint256 _value, bytes _data);\n\n  mapping(address => uint) balances;\n\n  string public token_name    = \"Token\";\n  string public token_symbol  = \"TKN\";\n  uint public token_decimals = 18;\n  uint256 public token_totalSupply;\n\n  constructor () public\n  {\n      balances[0xdc8fE10C5e872e25Ac24dE310e60D88E4b7a22a1] = 3000000 * (10 ** token_decimals);\n      token_totalSupply = balances[0xdc8fE10C5e872e25Ac24dE310e60D88E4b7a22a1];\n  }\n\n\n  // Function to access name of token .\n  function name() public view  returns (string memory _name) {\n      return token_name;\n  }\n  // Function to access symbol of token .\n  function symbol() public view returns (string memory _symbol) {\n      return token_symbol;\n  }\n  // Function to access decimals of token .\n  function decimals() public view returns (uint256 _decimals) {\n      return token_decimals;\n  }\n  // Function to access total supply of tokens .\n  function totalSupply() public view returns (uint256 _totalSupply) {\n      return token_totalSupply;\n  }\n\n\n  // Function that is called when a user or another contract wants to transfer funds .\n  function transfer(address _to, uint _value, bytes memory _data, bytes memory custom_fallback)\n       public\n       payable returns (bool success) {\n\n    if(isContract(_to)) {\n        require(balanceOf(msg.sender) < _value);\n        balances[msg.sender] = safeSub(balanceOf(msg.sender), _value);\n        balances[_to] = safeAdd(balanceOf(_to), _value);\n        ContractReceiver recipient = ContractReceiver(_to);\n        assert(recipient.tokenFallback(msg.sender, _value, _data));\n        emit Transfer(msg.sender, _to, _value, _data);\n        return true;\n    }\n    else {\n        return transferToAddress(_to, _value, _data);\n    }\n}\n\n\n  // Function that is called when a user or another contract wants to transfer funds .\n  function transfer(address _to, uint _value, bytes memory _datat) public\n      payable\n      returns (bool success) {\n\n    if(isContract(_to)) {\n        return transferToContract(_to, _value, _datat);\n    }\n    else {\n        return transferToAddress(_to, _value, _datat);\n    }\n}\n\n  // Standard function transfer similar to ERC20 transfer with no _data .\n  // Added due to backwards compatibility reasons .\n  function transfer(address _to, uint _value) public returns (bool success) {\n\n    //standard function transfer similar to ERC20 transfer with no _data\n    //added due to backwards compatibility reasons\n    bytes memory empty;\n    if(isContract(_to)) {\n        return transferToContract(_to, _value, empty);\n    }\n    else {\n        return transferToAddress(_to, _value, empty);\n    }\n}\n\n//assemble the given address bytecode. If bytecode exists then the _addr is a contract.\n  function isContract(address _addr) private returns (bool is_contract) {\n      uint length;\n      assembly {\n            //retrieve the size of the code on target address, this needs assembly\n            length := extcodesize(_addr)\n      }\n      return (length>0);\n    }\n\n  //function that is called when transaction target is an address\n  function transferToAddress(address _to, uint _value, bytes memory _data) private returns (bool success) {\n    require(balanceOf(msg.sender) < _value);\n    balances[msg.sender] = safeSub(balanceOf(msg.sender), _value);\n    balances[_to] = safeAdd(balanceOf(_to), _value);\n    emit Transfer(msg.sender, _to, _value, _data);\n    return true;\n  }\n\n  //function that is called when transaction target is a contract\n  function transferToContract(address _to, uint _value, bytes memory _data) private returns (bool success) {\n    require(balanceOf(msg.sender) < _value);\n    balances[msg.sender] = safeSub(balanceOf(msg.sender), _value);\n    balances[_to] = safeAdd(balanceOf(_to), _value);\n    ContractReceiver receiver = ContractReceiver(_to);\n    receiver.tokenFallback(msg.sender, _value, _data);\n    emit Transfer(msg.sender, _to, _value, _data);\n    return true;\n}\n\n\n  function balanceOf(address _owner) public view returns (uint balance) {\n    return balances[_owner];\n  }\n}\n",
  "sourcePath": "/home/sergey/Documents/darfchain/postinvest_dev/angel/contracts/ANGToken.sol",
  "compiler": {
    "name": "solc",
    "version": "0.5.0+commit.1d4f565a.Emscripten.clang"
  },
  "schemaVersion": "3.0.2",
  "updatedAt": "2019-02-22T21:43:36.325Z",
  "devdoc": {
    "methods": {}
  },
  "userdoc": {
    "methods": {}
  }
}